{
  "_format": "hh-sol-artifact-1",
  "contractName": "InputVal",
  "sourceName": "contracts/InputVal.sol",
  "abi": [
    {
      "inputs": [
        {
          "internalType": "address",
          "name": "",
          "type": "address"
        }
      ],
      "name": "ages",
      "outputs": [
        {
          "internalType": "uint8",
          "name": "",
          "type": "uint8"
        }
      ],
      "stateMutability": "view",
      "type": "function"
    },
    {
      "inputs": [],
      "name": "getAge",
      "outputs": [
        {
          "internalType": "uint8",
          "name": "",
          "type": "uint8"
        }
      ],
      "stateMutability": "view",
      "type": "function"
    },
    {
      "inputs": [
        {
          "internalType": "uint8",
          "name": "age",
          "type": "uint8"
        }
      ],
      "name": "setAge",
      "outputs": [],
      "stateMutability": "nonpayable",
      "type": "function"
    }
  ],
  "bytecode": "0x6080604052348015600f57600080fd5b506101538061001f6000396000f3fe608060405234801561001057600080fd5b50600436106100415760003560e01c80635b0c8d70146100465780638c9503a214610079578063967e6e65146100b2575b600080fd5b6100776100543660046100ca565b336000908152602081905260409020805460ff191660ff92909216919091179055565b005b61009c6100873660046100f4565b60006020819052908152604090205460ff1681565b60405160ff909116815260200160405180910390f35b3360009081526020819052604090205460ff1661009c565b6000602082840312156100dc57600080fd5b813560ff811681146100ed57600080fd5b9392505050565b60006020828403121561010657600080fd5b81356001600160a01b03811681146100ed57600080fdfea26469706673582212203cad7a79a9c2d0860a729d7a45dd0c9b7127649236dd3d77ef3135dfe4519b5664736f6c634300081c0033",
  "linkReferences": {},
  "deployedLinkReferences": {}
}