{
  "_format": "hh-sol-artifact-1",
  "contractName": "InputVal",
  "sourceName": "contracts/InputVal.sol",
  "abi": [
    {
      "inputs": [
        {
          "internalType": "address",
          "name": "",
          "type": "address"
        }
      ],
      "name": "ages",
      "outputs": [
        {
          "internalType": "uint8",
          "name": "",
          "type": "uint8"
        }
      ],
      "stateMutability": "view",
      "type": "function"
    },
    {
      "inputs": [],
      "name": "getAge",
      "outputs": [
        {
          "internalType": "uint8",
          "name": "",
          "type": "uint8"
        }
      ],
      "stateMutability": "view",
      "type": "function"
    },
    {
      "inputs": [
        {
          "internalType": "uint8",
          "name": "age",
          "type": "uint8"
        }
      ],
      "name": "setAge",
      "outputs": [],
      "stateMutability": "nonpayable",
      "type": "function"
    }
  ],
  "bytecode": "0x6080604052348015600f57600080fd5b506102d38061001f6000396000f3fe608060405234801561001057600080fd5b50600436106100415760003560e01c80635b0c8d70146100465780638c9503a214610062578063967e6e6514610092575b600080fd5b610060600480360381019061005b91906101bb565b6100b0565b005b61007c60048036038101906100779190610246565b61010a565b6040516100899190610282565b60405180910390f35b61009a61012a565b6040516100a79190610282565b60405180910390f35b806000803373ffffffffffffffffffffffffffffffffffffffff1673ffffffffffffffffffffffffffffffffffffffff16815260200190815260200160002060006101000a81548160ff021916908360ff16021790555050565b60006020528060005260406000206000915054906101000a900460ff1681565b60008060003373ffffffffffffffffffffffffffffffffffffffff1673ffffffffffffffffffffffffffffffffffffffff16815260200190815260200160002060009054906101000a900460ff16905090565b600080fd5b600060ff82169050919050565b61019881610182565b81146101a357600080fd5b50565b6000813590506101b58161018f565b92915050565b6000602082840312156101d1576101d061017d565b5b60006101df848285016101a6565b91505092915050565b600073ffffffffffffffffffffffffffffffffffffffff82169050919050565b6000610213826101e8565b9050919050565b61022381610208565b811461022e57600080fd5b50565b6000813590506102408161021a565b92915050565b60006020828403121561025c5761025b61017d565b5b600061026a84828501610231565b91505092915050565b61027c81610182565b82525050565b60006020820190506102976000830184610273565b9291505056fea26469706673582212200db55c0c72b7920fee12ba7ce88e2afeca045799e94b29bbe4a5e2e644f9de3164736f6c634300081c0033",
  "linkReferences": {},
  "deployedLinkReferences": {}
}